{"abi":[{"type":"constructor","inputs":[],"stateMutability":"nonpayable"},{"type":"function","name":"deploy_erc1155","inputs":[],"outputs":[{"name":"","type":"address","internalType":"address"}],"stateMutability":"nonpayable"},{"type":"function","name":"deploy_erc20","inputs":[],"outputs":[{"name":"","type":"address","internalType":"address"}],"stateMutability":"nonpayable"},{"type":"function","name":"deploy_erc721","inputs":[],"outputs":[{"name":"","type":"address","internalType":"address"}],"stateMutability":"nonpayable"},{"type":"function","name":"erc1155","inputs":[],"outputs":[{"name":"","type":"address","internalType":"address"}],"stateMutability":"view"},{"type":"function","name":"erc1155_next_id","inputs":[],"outputs":[{"name":"","type":"uint256","internalType":"uint256"}],"stateMutability":"view"},{"type":"function","name":"erc20","inputs":[],"outputs":[{"name":"","type":"address","internalType":"address"}],"stateMutability":"view"},{"type":"function","name":"erc721","inputs":[],"outputs":[{"name":"","type":"address","internalType":"address"}],"stateMutability":"view"},{"type":"function","name":"erc721_next_id","inputs":[],"outputs":[{"name":"","type":"uint256","internalType":"uint256"}],"stateMutability":"view"},{"type":"function","name":"mint_erc1155","inputs":[],"outputs":[],"stateMutability":"nonpayable"},{"type":"function","name":"mint_erc20","inputs":[],"outputs":[],"stateMutability":"nonpayable"},{"type":"function","name":"mint_erc721","inputs":[],"outputs":[],"stateMutability":"nonpayable"}],"bytecode":{"object":"0x608060405234801561001057600080fd5b5060405161001d9061018f565b60408082526009908201526805465737445524332360bc1b6060820152608060208201819052600a90820152690544553542d45524332360b41b60a082015260c001604051809103906000f08015801561007b573d6000803e3d6000fd5b50600080546001600160a01b0319166001600160a01b03929092169190911790556040516100a89061019c565b6040808252600a90820152695465737445524337323160b01b6060820152608060208201819052600b908201526a544553542d45524337323160a81b60a082015260c001604051809103906000f080158015610108573d6000803e3d6000fd5b50600180546001600160a01b0319166001600160a01b0392909216919091179055604051610135906101a9565b6020808252600090820152604001604051809103906000f08015801561015f573d6000803e3d6000fd5b50600280546001600160a01b0319166001600160a01b0392909216919091179055600060038190556004556101b6565b610a538061363883390190565b6112488061408b83390190565b6113fa806152d383390190565b613473806101c56000396000f3fe608060405234801561001057600080fd5b50600436106100a95760003560e01c8063aa39dec211610071578063aa39dec214610100578063aa4b0ae914610108578063aa9c08961461011f578063bca6ce6414610127578063d56022d71461013a578063e3649b6f1461014d57600080fd5b80631db2b075146100ae578063472147dc146100b8578063664465a0146100dd578063785e9e86146100e557806379e118d0146100f8575b600080fd5b6100b6610156565b005b6100c06101c4565b6040516001600160a01b0390911681526020015b60405180910390f35b6100c0610239565b6000546100c0906001600160a01b031681565b6100b6610272565b6100c06102ce565b61011160035481565b6040519081526020016100d4565b6100b6610323565b6001546100c0906001600160a01b031681565b6002546100c0906001600160a01b031681565b61011160045481565b600254604051630ab714fb60e11b815233600482015260016024820181905260448201526001600160a01b039091169063156e29f6906064015b600060405180830381600087803b1580156101aa57600080fd5b505af11580156101be573d6000803e3d6000fd5b50505050565b60006040516101d29061035a565b6040808252600a90820152695465737445524337323160b01b6060820152608060208201819052600b908201526a544553542d45524337323160a81b60a082015260c0015b604051809103906000f080158015610233573d6000803e3d6000fd5b50905090565b600060405161024790610367565b6020808252600f908201526e4465706c6f7965644552433131353560881b6040820152606001610217565b600154600380546001600160a01b03909216916340c10f1991339190600061029983610381565b909155506040516001600160e01b031960e085901b1681526001600160a01b0390921660048301526024820152604401610190565b60006040516102dc90610374565b60408082526009908201526805465737445524332360bc1b6060820152608060208201819052600a90820152690544553542d45524332360b41b60a082015260c001610217565b6000546040516340c10f1960e01b8152336004820152600160248201526001600160a01b03909116906340c10f1990604401610190565b611248806103a983390190565b6113fa806115f183390190565b610a53806129eb83390190565b6000600182016103a157634e487b7160e01b600052601160045260246000fd5b506001019056fe608060405234801561001057600080fd5b5060405161124838038061124883398101604081905261002f91610112565b8181600061003d8382610200565b50600161004a8282610200565b50505050506102bf565b634e487b7160e01b600052604160045260246000fd5b600082601f83011261007b57600080fd5b81516001600160401b038082111561009557610095610054565b604051601f8301601f19908116603f011681019082821181831017156100bd576100bd610054565b81604052838152602092508660208588010111156100da57600080fd5b600091505b838210156100fc57858201830151818301840152908201906100df565b6000602085830101528094505050505092915050565b6000806040838503121561012557600080fd5b82516001600160401b038082111561013c57600080fd5b6101488683870161006a565b9350602085015191508082111561015e57600080fd5b5061016b8582860161006a565b9150509250929050565b600181811c9082168061018957607f821691505b6020821081036101a957634e487b7160e01b600052602260045260246000fd5b50919050565b601f8211156101fb576000816000526020600020601f850160051c810160208610156101d85750805b601f850160051c820191505b818110156101f7578281556001016101e4565b5050505b505050565b81516001600160401b0381111561021957610219610054565b61022d816102278454610175565b846101af565b602080601f831160018114610262576000841561024a5750858301515b600019600386901b1c1916600185901b1785556101f7565b600085815260208120601f198616915b8281101561029157888601518255948401946001909101908401610272565b50858210156102af5787850151600019600388901b60f8161c191681555b5050505050600190811b01905550565b610f7a806102ce6000396000f3fe608060405234801561001057600080fd5b50600436106100ea5760003560e01c80636352211e1161008c578063a22cb46511610066578063a22cb465146101e1578063b88d4fde146101f4578063c87b56dd14610207578063e985e9c51461021a57600080fd5b80636352211e146101a557806370a08231146101b857806395d89b41146101d957600080fd5b8063095ea7b3116100c8578063095ea7b31461015757806323b872dd1461016c57806340c10f191461017f57806342842e0e1461019257600080fd5b806301ffc9a7146100ef57806306fdde0314610117578063081812fc1461012c575b600080fd5b6101026100fd366004610bea565b61022d565b60405190151581526020015b60405180910390f35b61011f61027f565b60405161010e9190610c57565b61013f61013a366004610c6a565b610311565b6040516001600160a01b03909116815260200161010e565b61016a610165366004610c9f565b61033a565b005b61016a61017a366004610cc9565b610349565b61016a61018d366004610c9f565b6103d9565b61016a6101a0366004610cc9565b6103e3565b61013f6101b3366004610c6a565b610403565b6101cb6101c6366004610d05565b61040e565b60405190815260200161010e565b61011f610456565b61016a6101ef366004610d20565b610465565b61016a610202366004610d72565b610470565b61011f610215366004610c6a565b610487565b610102610228366004610e4e565b6104fc565b60006001600160e01b031982166380ac58cd60e01b148061025e57506001600160e01b03198216635b5e139f60e01b145b8061027957506301ffc9a760e01b6001600160e01b03198316145b92915050565b60606000805461028e90610e81565b80601f01602080910402602001604051908101604052809291908181526020018280546102ba90610e81565b80156103075780601f106102dc57610100808354040283529160200191610307565b820191906000526020600020905b8154815290600101906020018083116102ea57829003601f168201915b5050505050905090565b600061031c8261052a565b506000828152600460205260409020546001600160a01b0316610279565b610345828233610563565b5050565b6001600160a01b03821661037857604051633250574960e11b8152600060048201526024015b60405180910390fd5b6000610385838333610570565b9050836001600160a01b0316816001600160a01b0316146103d3576040516364283d7b60e01b81526001600160a01b038086166004830152602482018490528216604482015260640161036f565b50505050565b6103458282610669565b6103fe83838360405180602001604052806000815250610470565b505050565b60006102798261052a565b60006001600160a01b03821661043a576040516322718ad960e21b81526000600482015260240161036f565b506001600160a01b031660009081526003602052604090205490565b60606001805461028e90610e81565b6103453383836106ce565b61047b848484610349565b6103d38484848461076d565b60606104928261052a565b5060006104aa60408051602081019091526000815290565b905060008151116104ca57604051806020016040528060008152506104f5565b806104d484610896565b6040516020016104e5929190610ebb565b6040516020818303038152906040525b9392505050565b6001600160a01b03918216600090815260056020908152604080832093909416825291909152205460ff1690565b6000818152600260205260408120546001600160a01b03168061027957604051637e27328960e01b81526004810184905260240161036f565b6103fe8383836001610929565b6000828152600260205260408120546001600160a01b039081169083161561059d5761059d818486610a2f565b6001600160a01b038116156105db576105ba600085600080610929565b6001600160a01b038116600090815260036020526040902080546000190190555b6001600160a01b0385161561060a576001600160a01b0385166000908152600360205260409020805460010190555b60008481526002602052604080822080546001600160a01b0319166001600160a01b0389811691821790925591518793918516917fddf252ad1be2c89b69c2b068fc378daa952ba7f163c4a11628f55a4df523b3ef91a4949350505050565b6001600160a01b03821661069357604051633250574960e11b81526000600482015260240161036f565b60006106a183836000610570565b90506001600160a01b038116156103fe576040516339e3563760e11b81526000600482015260240161036f565b6001600160a01b03821661070057604051630b61174360e31b81526001600160a01b038316600482015260240161036f565b6001600160a01b03838116600081815260056020908152604080832094871680845294825291829020805460ff191686151590811790915591519182527f17307eab39ab6107e8899845ad3d59bd9653f200f220920489ca2b5937696c31910160405180910390a3505050565b6001600160a01b0383163b156103d357604051630a85bd0160e11b81526001600160a01b0384169063150b7a02906107af903390889087908790600401610eea565b6020604051808303816000875af19250505080156107ea575060408051601f3d908101601f191682019092526107e791810190610f27565b60015b610853573d808015610818576040519150601f19603f3d011682016040523d82523d6000602084013e61081d565b606091505b50805160000361084b57604051633250574960e11b81526001600160a01b038516600482015260240161036f565b805181602001fd5b6001600160e01b03198116630a85bd0160e11b1461088f57604051633250574960e11b81526001600160a01b038516600482015260240161036f565b5050505050565b606060006108a383610a93565b600101905060008167ffffffffffffffff8111156108c3576108c3610d5c565b6040519080825280601f01601f1916602001820160405280156108ed576020820181803683370190505b5090508181016020015b600019016f181899199a1a9b1b9c1cb0b131b232b360811b600a86061a8153600a85049450846108f757509392505050565b808061093d57506001600160a01b03821615155b156109ff57600061094d8461052a565b90506001600160a01b038316158015906109795750826001600160a01b0316816001600160a01b031614155b801561098c575061098a81846104fc565b155b156109b55760405163a9fbf51f60e01b81526001600160a01b038416600482015260240161036f565b81156109fd5783856001600160a01b0316826001600160a01b03167f8c5be1e5ebec7d5bd14f71427d1e84f3dd0314c0f7b2291e5b200ac8c7c3b92560405160405180910390a45b505b5050600090815260046020526040902080546001600160a01b0319166001600160a01b0392909216919091179055565b610a3a838383610b6b565b6103fe576001600160a01b038316610a6857604051637e27328960e01b81526004810182905260240161036f565b60405163177e802f60e01b81526001600160a01b03831660048201526024810182905260440161036f565b60008072184f03e93ff9f4daa797ed6e38ed64bf6a1f0160401b8310610ad25772184f03e93ff9f4daa797ed6e38ed64bf6a1f0160401b830492506040015b6d04ee2d6d415b85acef81000000008310610afe576d04ee2d6d415b85acef8100000000830492506020015b662386f26fc100008310610b1c57662386f26fc10000830492506010015b6305f5e1008310610b34576305f5e100830492506008015b6127108310610b4857612710830492506004015b60648310610b5a576064830492506002015b600a83106102795760010192915050565b60006001600160a01b03831615801590610bc95750826001600160a01b0316846001600160a01b03161480610ba55750610ba584846104fc565b80610bc957506000828152600460205260409020546001600160a01b038481169116145b949350505050565b6001600160e01b031981168114610be757600080fd5b50565b600060208284031215610bfc57600080fd5b81356104f581610bd1565b60005b83811015610c22578181015183820152602001610c0a565b50506000910152565b60008151808452610c43816020860160208601610c07565b601f01601f19169290920160200192915050565b6020815260006104f56020830184610c2b565b600060208284031215610c7c57600080fd5b5035919050565b80356001600160a01b0381168114610c9a57600080fd5b919050565b60008060408385031215610cb257600080fd5b610cbb83610c83565b946020939093013593505050565b600080600060608486031215610cde57600080fd5b610ce784610c83565b9250610cf560208501610c83565b9150604084013590509250925092565b600060208284031215610d1757600080fd5b6104f582610c83565b60008060408385031215610d3357600080fd5b610d3c83610c83565b915060208301358015158114610d5157600080fd5b809150509250929050565b634e487b7160e01b600052604160045260246000fd5b60008060008060808587031215610d8857600080fd5b610d9185610c83565b9350610d9f60208601610c83565b925060408501359150606085013567ffffffffffffffff80821115610dc357600080fd5b818701915087601f830112610dd757600080fd5b813581811115610de957610de9610d5c565b604051601f8201601f19908116603f01168101908382118183101715610e1157610e11610d5c565b816040528281528a6020848701011115610e2a57600080fd5b82602086016020830137600060208483010152809550505050505092959194509250565b60008060408385031215610e6157600080fd5b610e6a83610c83565b9150610e7860208401610c83565b90509250929050565b600181811c90821680610e9557607f821691505b602082108103610eb557634e487b7160e01b600052602260045260246000fd5b50919050565b60008351610ecd818460208801610c07565b835190830190610ee1818360208801610c07565b01949350505050565b6001600160a01b0385811682528416602082015260408101839052608060608201819052600090610f1d90830184610c2b565b9695505050505050565b600060208284031215610f3957600080fd5b81516104f581610bd156fea26469706673582212203b61f7e093553dd81d10f2d26a029b6e14902b0f59d26397687e7cb6aa7ad6a064736f6c63430008190033608060405234801561001057600080fd5b506040516113fa3803806113fa83398101604081905261002f91610066565b8061003981610040565b5050610279565b600261004c82826101ba565b5050565b634e487b7160e01b600052604160045260246000fd5b6000602080838503121561007957600080fd5b82516001600160401b038082111561009057600080fd5b818501915085601f8301126100a457600080fd5b8151818111156100b6576100b6610050565b604051601f8201601f19908116603f011681019083821181831017156100de576100de610050565b8160405282815288868487010111156100f657600080fd5b600093505b8284101561011857848401860151818501870152928501926100fb565b600086848301015280965050505050505092915050565b600181811c9082168061014357607f821691505b60208210810361016357634e487b7160e01b600052602260045260246000fd5b50919050565b601f8211156101b5576000816000526020600020601f850160051c810160208610156101925750805b601f850160051c820191505b818110156101b15782815560010161019e565b5050505b505050565b81516001600160401b038111156101d3576101d3610050565b6101e7816101e1845461012f565b84610169565b602080601f83116001811461021c57600084156102045750858301515b600019600386901b1c1916600185901b1785556101b1565b600085815260208120601f198616915b8281101561024b5788860151825594840194600190910190840161022c565b50858210156102695787850151600019600388901b60f8161c191681555b5050505050600190811b01905550565b611172806102886000396000f3fe608060405234801561001057600080fd5b50600436106100925760003560e01c80632eb2c2d6116100665780632eb2c2d6146101155780634e1273f414610128578063a22cb46514610148578063e985e9c51461015b578063f242432a1461016e57600080fd5b8062fdd58e1461009757806301ffc9a7146100bd5780630e89341c146100e0578063156e29f614610100575b600080fd5b6100aa6100a5366004610afa565b610181565b6040519081526020015b60405180910390f35b6100d06100cb366004610b3d565b6101a9565b60405190151581526020016100b4565b6100f36100ee366004610b61565b6101f9565b6040516100b49190610bc0565b61011361010e366004610bd3565b61028d565b005b610113610123366004610d50565b6102ad565b61013b610136366004610dfa565b610319565b6040516100b49190610ef6565b610113610156366004610f09565b6103e6565b6100d0610169366004610f45565b6103f5565b61011361017c366004610f78565b610423565b6000818152602081815260408083206001600160a01b03861684529091529020545b92915050565b60006001600160e01b03198216636cdb3d1360e11b14806101da57506001600160e01b031982166303a24d0760e21b145b806101a357506301ffc9a760e01b6001600160e01b03198316146101a3565b60606002805461020890610fdd565b80601f016020809104026020016040519081016040528092919081815260200182805461023490610fdd565b80156102815780601f1061025657610100808354040283529160200191610281565b820191906000526020600020905b81548152906001019060200180831161026457829003601f168201915b50505050509050919050565b6102a883838360405180602001604052806000815250610482565b505050565b336001600160a01b03861681148015906102ce57506102cc86826103f5565b155b156103045760405163711bec9160e11b81526001600160a01b038083166004830152871660248201526044015b60405180910390fd5b61031186868686866104df565b505050505050565b6060815183511461034a5781518351604051635b05999160e01b8152600481019290925260248201526044016102fb565b6000835167ffffffffffffffff81111561036657610366610c06565b60405190808252806020026020018201604052801561038f578160200160208202803683370190505b50905060005b84518110156103de576020808202860101516103b990602080840287010151610181565b8282815181106103cb576103cb611017565b6020908102919091010152600101610395565b509392505050565b6103f1338383610546565b5050565b6001600160a01b03918216600090815260016020908152604080832093909416825291909152205460ff1690565b336001600160a01b0386168114801590610444575061044286826103f5565b155b156104755760405163711bec9160e11b81526001600160a01b038083166004830152871660248201526044016102fb565b61031186868686866105dc565b6001600160a01b0384166104ac57604051632bfa23e760e11b8152600060048201526024016102fb565b6040805160018082526020820186905281830190815260608201859052608082019092529061031160008784848761066a565b6001600160a01b03841661050957604051632bfa23e760e11b8152600060048201526024016102fb565b6001600160a01b03851661053257604051626a0d4560e21b8152600060048201526024016102fb565b61053f858585858561066a565b5050505050565b6001600160a01b03821661056f5760405162ced3e160e81b8152600060048201526024016102fb565b6001600160a01b03838116600081815260016020908152604080832094871680845294825291829020805460ff191686151590811790915591519182527f17307eab39ab6107e8899845ad3d59bd9653f200f220920489ca2b5937696c31910160405180910390a3505050565b6001600160a01b03841661060657604051632bfa23e760e11b8152600060048201526024016102fb565b6001600160a01b03851661062f57604051626a0d4560e21b8152600060048201526024016102fb565b60408051600180825260208201869052818301908152606082018590526080820190925290610661878784848761066a565b50505050505050565b610676858585856106bd565b6001600160a01b0384161561053f57825133906001036106af57602084810151908401516106a88389898585896108d1565b5050610311565b6103118187878787876109f5565b80518251146106ec5781518151604051635b05999160e01b8152600481019290925260248201526044016102fb565b3360005b83518110156107f2576020818102858101820151908501909101516001600160a01b038816156107a3576000828152602081815260408083206001600160a01b038c1684529091529020548181101561077c576040516303dee4c560e01b81526001600160a01b038a1660048201526024810182905260448101839052606481018490526084016102fb565b6000838152602081815260408083206001600160a01b038d16845290915290209082900390555b6001600160a01b038716156107e8576000828152602081815260408083206001600160a01b038b168452909152812080548392906107e290849061102d565b90915550505b50506001016106f0565b5082516001036108735760208301516000906020840151909150856001600160a01b0316876001600160a01b0316846001600160a01b03167fc3d58168c5ae7397731d063d5bbf3d657854427343f4c083240f7aacaa2d0f628585604051610864929190918252602082015260400190565b60405180910390a4505061053f565b836001600160a01b0316856001600160a01b0316826001600160a01b03167f4a39dc06d4c0dbc64b70af90fd698a233a518aa5d07e595d983b8c0526c8f7fb86866040516108c292919061104e565b60405180910390a45050505050565b6001600160a01b0384163b156103115760405163f23a6e6160e01b81526001600160a01b0385169063f23a6e6190610915908990899088908890889060040161107c565b6020604051808303816000875af1925050508015610950575060408051601f3d908101601f1916820190925261094d918101906110c1565b60015b6109b9573d80801561097e576040519150601f19603f3d011682016040523d82523d6000602084013e610983565b606091505b5080516000036109b157604051632bfa23e760e11b81526001600160a01b03861660048201526024016102fb565b805181602001fd5b6001600160e01b0319811663f23a6e6160e01b1461066157604051632bfa23e760e11b81526001600160a01b03861660048201526024016102fb565b6001600160a01b0384163b156103115760405163bc197c8160e01b81526001600160a01b0385169063bc197c8190610a3990899089908890889088906004016110de565b6020604051808303816000875af1925050508015610a74575060408051601f3d908101601f19168201909252610a71918101906110c1565b60015b610aa2573d80801561097e576040519150601f19603f3d011682016040523d82523d6000602084013e610983565b6001600160e01b0319811663bc197c8160e01b1461066157604051632bfa23e760e11b81526001600160a01b03861660048201526024016102fb565b80356001600160a01b0381168114610af557600080fd5b919050565b60008060408385031215610b0d57600080fd5b610b1683610ade565b946020939093013593505050565b6001600160e01b031981168114610b3a57600080fd5b50565b600060208284031215610b4f57600080fd5b8135610b5a81610b24565b9392505050565b600060208284031215610b7357600080fd5b5035919050565b6000815180845260005b81811015610ba057602081850181015186830182015201610b84565b506000602082860101526020601f19601f83011685010191505092915050565b602081526000610b5a6020830184610b7a565b600080600060608486031215610be857600080fd5b610bf184610ade565b95602085013595506040909401359392505050565b634e487b7160e01b600052604160045260246000fd5b604051601f8201601f1916810167ffffffffffffffff81118282101715610c4557610c45610c06565b604052919050565b600067ffffffffffffffff821115610c6757610c67610c06565b5060051b60200190565b600082601f830112610c8257600080fd5b81356020610c97610c9283610c4d565b610c1c565b8083825260208201915060208460051b870101935086841115610cb957600080fd5b602086015b84811015610cd55780358352918301918301610cbe565b509695505050505050565b600082601f830112610cf157600080fd5b813567ffffffffffffffff811115610d0b57610d0b610c06565b610d1e601f8201601f1916602001610c1c565b818152846020838601011115610d3357600080fd5b816020850160208301376000918101602001919091529392505050565b600080600080600060a08688031215610d6857600080fd5b610d7186610ade565b9450610d7f60208701610ade565b9350604086013567ffffffffffffffff80821115610d9c57600080fd5b610da889838a01610c71565b94506060880135915080821115610dbe57600080fd5b610dca89838a01610c71565b93506080880135915080821115610de057600080fd5b50610ded88828901610ce0565b9150509295509295909350565b60008060408385031215610e0d57600080fd5b823567ffffffffffffffff80821115610e2557600080fd5b818501915085601f830112610e3957600080fd5b81356020610e49610c9283610c4d565b82815260059290921b84018101918181019089841115610e6857600080fd5b948201945b83861015610e8d57610e7e86610ade565b82529482019490820190610e6d565b96505086013592505080821115610ea357600080fd5b50610eb085828601610c71565b9150509250929050565b60008151808452602080850194506020840160005b83811015610eeb57815187529582019590820190600101610ecf565b509495945050505050565b602081526000610b5a6020830184610eba565b60008060408385031215610f1c57600080fd5b610f2583610ade565b915060208301358015158114610f3a57600080fd5b809150509250929050565b60008060408385031215610f5857600080fd5b610f6183610ade565b9150610f6f60208401610ade565b90509250929050565b600080600080600060a08688031215610f9057600080fd5b610f9986610ade565b9450610fa760208701610ade565b93506040860135925060608601359150608086013567ffffffffffffffff811115610fd157600080fd5b610ded88828901610ce0565b600181811c90821680610ff157607f821691505b60208210810361101157634e487b7160e01b600052602260045260246000fd5b50919050565b634e487b7160e01b600052603260045260246000fd5b808201808211156101a357634e487b7160e01b600052601160045260246000fd5b6040815260006110616040830185610eba565b82810360208401526110738185610eba565b95945050505050565b6001600160a01b03868116825285166020820152604081018490526060810183905260a0608082018190526000906110b690830184610b7a565b979650505050505050565b6000602082840312156110d357600080fd5b8151610b5a81610b24565b6001600160a01b0386811682528516602082015260a06040820181905260009061110a90830186610eba565b828103606084015261111c8186610eba565b905082810360808401526111308185610b7a565b9897505050505050505056fea2646970667358221220d14870c197b38d7f6bc846241842fb5efee81523dddfcc874cbe93582d581cd764736f6c63430008190033608060405234801561001057600080fd5b50604051610a53380380610a5383398101604081905261002f91610112565b8181600361003d8382610200565b50600461004a8282610200565b50505050506102bf565b634e487b7160e01b600052604160045260246000fd5b600082601f83011261007b57600080fd5b81516001600160401b038082111561009557610095610054565b604051601f8301601f19908116603f011681019082821181831017156100bd576100bd610054565b81604052838152602092508660208588010111156100da57600080fd5b600091505b838210156100fc57858201830151818301840152908201906100df565b6000602085830101528094505050505092915050565b6000806040838503121561012557600080fd5b82516001600160401b038082111561013c57600080fd5b6101488683870161006a565b9350602085015191508082111561015e57600080fd5b5061016b8582860161006a565b9150509250929050565b600181811c9082168061018957607f821691505b6020821081036101a957634e487b7160e01b600052602260045260246000fd5b50919050565b601f8211156101fb576000816000526020600020601f850160051c810160208610156101d85750805b601f850160051c820191505b818110156101f7578281556001016101e4565b5050505b505050565b81516001600160401b0381111561021957610219610054565b61022d816102278454610175565b846101af565b602080601f831160018114610262576000841561024a5750858301515b600019600386901b1c1916600185901b1785556101f7565b600085815260208120601f198616915b8281101561029157888601518255948401946001909101908401610272565b50858210156102af5787850151600019600388901b60f8161c191681555b5050505050600190811b01905550565b610785806102ce6000396000f3fe608060405234801561001057600080fd5b506004361061009e5760003560e01c806340c10f191161006657806340c10f191461011857806370a082311461012d57806395d89b4114610156578063a9059cbb1461015e578063dd62ed3e1461017157600080fd5b806306fdde03146100a3578063095ea7b3146100c157806318160ddd146100e457806323b872dd146100f6578063313ce56714610109575b600080fd5b6100ab6101aa565b6040516100b891906105ce565b60405180910390f35b6100d46100cf366004610639565b61023c565b60405190151581526020016100b8565b6002545b6040519081526020016100b8565b6100d4610104366004610663565b610256565b604051601281526020016100b8565b61012b610126366004610639565b61027a565b005b6100e861013b36600461069f565b6001600160a01b031660009081526020819052604090205490565b6100ab610288565b6100d461016c366004610639565b610297565b6100e861017f3660046106c1565b6001600160a01b03918216600090815260016020908152604080832093909416825291909152205490565b6060600380546101b9906106f4565b80601f01602080910402602001604051908101604052809291908181526020018280546101e5906106f4565b80156102325780601f1061020757610100808354040283529160200191610232565b820191906000526020600020905b81548152906001019060200180831161021557829003601f168201915b5050505050905090565b60003361024a8185856102a5565b60019150505b92915050565b6000336102648582856102b7565b61026f85858561033a565b506001949350505050565b6102848282610399565b5050565b6060600480546101b9906106f4565b60003361024a81858561033a565b6102b283838360016103cf565b505050565b6001600160a01b038381166000908152600160209081526040808320938616835292905220546000198114610334578181101561032557604051637dc7a0d960e11b81526001600160a01b038416600482015260248101829052604481018390526064015b60405180910390fd5b610334848484840360006103cf565b50505050565b6001600160a01b03831661036457604051634b637e8f60e11b81526000600482015260240161031c565b6001600160a01b03821661038e5760405163ec442f0560e01b81526000600482015260240161031c565b6102b28383836104a4565b6001600160a01b0382166103c35760405163ec442f0560e01b81526000600482015260240161031c565b610284600083836104a4565b6001600160a01b0384166103f95760405163e602df0560e01b81526000600482015260240161031c565b6001600160a01b03831661042357604051634a1406b160e11b81526000600482015260240161031c565b6001600160a01b038085166000908152600160209081526040808320938716835292905220829055801561033457826001600160a01b0316846001600160a01b03167f8c5be1e5ebec7d5bd14f71427d1e84f3dd0314c0f7b2291e5b200ac8c7c3b9258460405161049691815260200190565b60405180910390a350505050565b6001600160a01b0383166104cf5780600260008282546104c4919061072e565b909155506105419050565b6001600160a01b038316600090815260208190526040902054818110156105225760405163391434e360e21b81526001600160a01b0385166004820152602481018290526044810183905260640161031c565b6001600160a01b03841660009081526020819052604090209082900390555b6001600160a01b03821661055d5760028054829003905561057c565b6001600160a01b03821660009081526020819052604090208054820190555b816001600160a01b0316836001600160a01b03167fddf252ad1be2c89b69c2b068fc378daa952ba7f163c4a11628f55a4df523b3ef836040516105c191815260200190565b60405180910390a3505050565b60006020808352835180602085015260005b818110156105fc578581018301518582016040015282016105e0565b506000604082860101526040601f19601f8301168501019250505092915050565b80356001600160a01b038116811461063457600080fd5b919050565b6000806040838503121561064c57600080fd5b6106558361061d565b946020939093013593505050565b60008060006060848603121561067857600080fd5b6106818461061d565b925061068f6020850161061d565b9150604084013590509250925092565b6000602082840312156106b157600080fd5b6106ba8261061d565b9392505050565b600080604083850312156106d457600080fd5b6106dd8361061d565b91506106eb6020840161061d565b90509250929050565b600181811c9082168061070857607f821691505b60208210810361072857634e487b7160e01b600052602260045260246000fd5b50919050565b8082018082111561025057634e487b7160e01b600052601160045260246000fdfea2646970667358221220dc36847272b25fddc267ffb5e0ef055f04388fff4c9660cd38806db052d8c83664736f6c63430008190033a2646970667358221220f4e94b48a399168ecd301efb481d05e69c9d60a68a85fbf34fa42b534d04e4d564736f6c63430008190033608060405234801561001057600080fd5b50604051610a53380380610a5383398101604081905261002f91610112565b8181600361003d8382610200565b50600461004a8282610200565b50505050506102bf565b634e487b7160e01b600052604160045260246000fd5b600082601f83011261007b57600080fd5b81516001600160401b038082111561009557610095610054565b604051601f8301601f19908116603f011681019082821181831017156100bd576100bd610054565b81604052838152602092508660208588010111156100da57600080fd5b600091505b838210156100fc57858201830151818301840152908201906100df565b6000602085830101528094505050505092915050565b6000806040838503121561012557600080fd5b82516001600160401b038082111561013c57600080fd5b6101488683870161006a565b9350602085015191508082111561015e57600080fd5b5061016b8582860161006a565b9150509250929050565b600181811c9082168061018957607f821691505b6020821081036101a957634e487b7160e01b600052602260045260246000fd5b50919050565b601f8211156101fb576000816000526020600020601f850160051c810160208610156101d85750805b601f850160051c820191505b818110156101f7578281556001016101e4565b5050505b505050565b81516001600160401b0381111561021957610219610054565b61022d816102278454610175565b846101af565b602080601f831160018114610262576000841561024a5750858301515b600019600386901b1c1916600185901b1785556101f7565b600085815260208120601f198616915b8281101561029157888601518255948401946001909101908401610272565b50858210156102af5787850151600019600388901b60f8161c191681555b5050505050600190811b01905550565b610785806102ce6000396000f3fe608060405234801561001057600080fd5b506004361061009e5760003560e01c806340c10f191161006657806340c10f191461011857806370a082311461012d57806395d89b4114610156578063a9059cbb1461015e578063dd62ed3e1461017157600080fd5b806306fdde03146100a3578063095ea7b3146100c157806318160ddd146100e457806323b872dd146100f6578063313ce56714610109575b600080fd5b6100ab6101aa565b6040516100b891906105ce565b60405180910390f35b6100d46100cf366004610639565b61023c565b60405190151581526020016100b8565b6002545b6040519081526020016100b8565b6100d4610104366004610663565b610256565b604051601281526020016100b8565b61012b610126366004610639565b61027a565b005b6100e861013b36600461069f565b6001600160a01b031660009081526020819052604090205490565b6100ab610288565b6100d461016c366004610639565b610297565b6100e861017f3660046106c1565b6001600160a01b03918216600090815260016020908152604080832093909416825291909152205490565b6060600380546101b9906106f4565b80601f01602080910402602001604051908101604052809291908181526020018280546101e5906106f4565b80156102325780601f1061020757610100808354040283529160200191610232565b820191906000526020600020905b81548152906001019060200180831161021557829003601f168201915b5050505050905090565b60003361024a8185856102a5565b60019150505b92915050565b6000336102648582856102b7565b61026f85858561033a565b506001949350505050565b6102848282610399565b5050565b6060600480546101b9906106f4565b60003361024a81858561033a565b6102b283838360016103cf565b505050565b6001600160a01b038381166000908152600160209081526040808320938616835292905220546000198114610334578181101561032557604051637dc7a0d960e11b81526001600160a01b038416600482015260248101829052604481018390526064015b60405180910390fd5b610334848484840360006103cf565b50505050565b6001600160a01b03831661036457604051634b637e8f60e11b81526000600482015260240161031c565b6001600160a01b03821661038e5760405163ec442f0560e01b81526000600482015260240161031c565b6102b28383836104a4565b6001600160a01b0382166103c35760405163ec442f0560e01b81526000600482015260240161031c565b610284600083836104a4565b6001600160a01b0384166103f95760405163e602df0560e01b81526000600482015260240161031c565b6001600160a01b03831661042357604051634a1406b160e11b81526000600482015260240161031c565b6001600160a01b038085166000908152600160209081526040808320938716835292905220829055801561033457826001600160a01b0316846001600160a01b03167f8c5be1e5ebec7d5bd14f71427d1e84f3dd0314c0f7b2291e5b200ac8c7c3b9258460405161049691815260200190565b60405180910390a350505050565b6001600160a01b0383166104cf5780600260008282546104c4919061072e565b909155506105419050565b6001600160a01b038316600090815260208190526040902054818110156105225760405163391434e360e21b81526001600160a01b0385166004820152602481018290526044810183905260640161031c565b6001600160a01b03841660009081526020819052604090209082900390555b6001600160a01b03821661055d5760028054829003905561057c565b6001600160a01b03821660009081526020819052604090208054820190555b816001600160a01b0316836001600160a01b03167fddf252ad1be2c89b69c2b068fc378daa952ba7f163c4a11628f55a4df523b3ef836040516105c191815260200190565b60405180910390a3505050565b60006020808352835180602085015260005b818110156105fc578581018301518582016040015282016105e0565b506000604082860101526040601f19601f8301168501019250505092915050565b80356001600160a01b038116811461063457600080fd5b919050565b6000806040838503121561064c57600080fd5b6106558361061d565b946020939093013593505050565b60008060006060848603121561067857600080fd5b6106818461061d565b925061068f6020850161061d565b9150604084013590509250925092565b6000602082840312156106b157600080fd5b6106ba8261061d565b9392505050565b600080604083850312156106d457600080fd5b6106dd8361061d565b91506106eb6020840161061d565b90509250929050565b600181811c9082168061070857607f821691505b60208210810361072857634e487b7160e01b600052602260045260246000fd5b50919050565b8082018082111561025057634e487b7160e01b600052601160045260246000fdfea2646970667358221220dc36847272b25fddc267ffb5e0ef055f04388fff4c9660cd38806db052d8c83664736f6c63430008190033608060405234801561001057600080fd5b5060405161124838038061124883398101604081905261002f91610112565b8181600061003d8382610200565b50600161004a8282610200565b50505050506102bf565b634e487b7160e01b600052604160045260246000fd5b600082601f83011261007b57600080fd5b81516001600160401b038082111561009557610095610054565b604051601f8301601f19908116603f011681019082821181831017156100bd576100bd610054565b81604052838152602092508660208588010111156100da57600080fd5b600091505b838210156100fc57858201830151818301840152908201906100df565b6000602085830101528094505050505092915050565b6000806040838503121561012557600080fd5b82516001600160401b038082111561013c57600080fd5b6101488683870161006a565b9350602085015191508082111561015e57600080fd5b5061016b8582860161006a565b9150509250929050565b600181811c9082168061018957607f821691505b6020821081036101a957634e487b7160e01b600052602260045260246000fd5b50919050565b601f8211156101fb576000816000526020600020601f850160051c810160208610156101d85750805b601f850160051c820191505b818110156101f7578281556001016101e4565b5050505b505050565b81516001600160401b0381111561021957610219610054565b61022d816102278454610175565b846101af565b602080601f831160018114610262576000841561024a5750858301515b600019600386901b1c1916600185901b1785556101f7565b600085815260208120601f198616915b8281101561029157888601518255948401946001909101908401610272565b50858210156102af5787850151600019600388901b60f8161c191681555b5050505050600190811b01905550565b610f7a806102ce6000396000f3fe608060405234801561001057600080fd5b50600436106100ea5760003560e01c80636352211e1161008c578063a22cb46511610066578063a22cb465146101e1578063b88d4fde146101f4578063c87b56dd14610207578063e985e9c51461021a57600080fd5b80636352211e146101a557806370a08231146101b857806395d89b41146101d957600080fd5b8063095ea7b3116100c8578063095ea7b31461015757806323b872dd1461016c57806340c10f191461017f57806342842e0e1461019257600080fd5b806301ffc9a7146100ef57806306fdde0314610117578063081812fc1461012c575b600080fd5b6101026100fd366004610bea565b61022d565b60405190151581526020015b60405180910390f35b61011f61027f565b60405161010e9190610c57565b61013f61013a366004610c6a565b610311565b6040516001600160a01b03909116815260200161010e565b61016a610165366004610c9f565b61033a565b005b61016a61017a366004610cc9565b610349565b61016a61018d366004610c9f565b6103d9565b61016a6101a0366004610cc9565b6103e3565b61013f6101b3366004610c6a565b610403565b6101cb6101c6366004610d05565b61040e565b60405190815260200161010e565b61011f610456565b61016a6101ef366004610d20565b610465565b61016a610202366004610d72565b610470565b61011f610215366004610c6a565b610487565b610102610228366004610e4e565b6104fc565b60006001600160e01b031982166380ac58cd60e01b148061025e57506001600160e01b03198216635b5e139f60e01b145b8061027957506301ffc9a760e01b6001600160e01b03198316145b92915050565b60606000805461028e90610e81565b80601f01602080910402602001604051908101604052809291908181526020018280546102ba90610e81565b80156103075780601f106102dc57610100808354040283529160200191610307565b820191906000526020600020905b8154815290600101906020018083116102ea57829003601f168201915b5050505050905090565b600061031c8261052a565b506000828152600460205260409020546001600160a01b0316610279565b610345828233610563565b5050565b6001600160a01b03821661037857604051633250574960e11b8152600060048201526024015b60405180910390fd5b6000610385838333610570565b9050836001600160a01b0316816001600160a01b0316146103d3576040516364283d7b60e01b81526001600160a01b038086166004830152602482018490528216604482015260640161036f565b50505050565b6103458282610669565b6103fe83838360405180602001604052806000815250610470565b505050565b60006102798261052a565b60006001600160a01b03821661043a576040516322718ad960e21b81526000600482015260240161036f565b506001600160a01b031660009081526003602052604090205490565b60606001805461028e90610e81565b6103453383836106ce565b61047b848484610349565b6103d38484848461076d565b60606104928261052a565b5060006104aa60408051602081019091526000815290565b905060008151116104ca57604051806020016040528060008152506104f5565b806104d484610896565b6040516020016104e5929190610ebb565b6040516020818303038152906040525b9392505050565b6001600160a01b03918216600090815260056020908152604080832093909416825291909152205460ff1690565b6000818152600260205260408120546001600160a01b03168061027957604051637e27328960e01b81526004810184905260240161036f565b6103fe8383836001610929565b6000828152600260205260408120546001600160a01b039081169083161561059d5761059d818486610a2f565b6001600160a01b038116156105db576105ba600085600080610929565b6001600160a01b038116600090815260036020526040902080546000190190555b6001600160a01b0385161561060a576001600160a01b0385166000908152600360205260409020805460010190555b60008481526002602052604080822080546001600160a01b0319166001600160a01b0389811691821790925591518793918516917fddf252ad1be2c89b69c2b068fc378daa952ba7f163c4a11628f55a4df523b3ef91a4949350505050565b6001600160a01b03821661069357604051633250574960e11b81526000600482015260240161036f565b60006106a183836000610570565b90506001600160a01b038116156103fe576040516339e3563760e11b81526000600482015260240161036f565b6001600160a01b03821661070057604051630b61174360e31b81526001600160a01b038316600482015260240161036f565b6001600160a01b03838116600081815260056020908152604080832094871680845294825291829020805460ff191686151590811790915591519182527f17307eab39ab6107e8899845ad3d59bd9653f200f220920489ca2b5937696c31910160405180910390a3505050565b6001600160a01b0383163b156103d357604051630a85bd0160e11b81526001600160a01b0384169063150b7a02906107af903390889087908790600401610eea565b6020604051808303816000875af19250505080156107ea575060408051601f3d908101601f191682019092526107e791810190610f27565b60015b610853573d808015610818576040519150601f19603f3d011682016040523d82523d6000602084013e61081d565b606091505b50805160000361084b57604051633250574960e11b81526001600160a01b038516600482015260240161036f565b805181602001fd5b6001600160e01b03198116630a85bd0160e11b1461088f57604051633250574960e11b81526001600160a01b038516600482015260240161036f565b5050505050565b606060006108a383610a93565b600101905060008167ffffffffffffffff8111156108c3576108c3610d5c565b6040519080825280601f01601f1916602001820160405280156108ed576020820181803683370190505b5090508181016020015b600019016f181899199a1a9b1b9c1cb0b131b232b360811b600a86061a8153600a85049450846108f757509392505050565b808061093d57506001600160a01b03821615155b156109ff57600061094d8461052a565b90506001600160a01b038316158015906109795750826001600160a01b0316816001600160a01b031614155b801561098c575061098a81846104fc565b155b156109b55760405163a9fbf51f60e01b81526001600160a01b038416600482015260240161036f565b81156109fd5783856001600160a01b0316826001600160a01b03167f8c5be1e5ebec7d5bd14f71427d1e84f3dd0314c0f7b2291e5b200ac8c7c3b92560405160405180910390a45b505b5050600090815260046020526040902080546001600160a01b0319166001600160a01b0392909216919091179055565b610a3a838383610b6b565b6103fe576001600160a01b038316610a6857604051637e27328960e01b81526004810182905260240161036f565b60405163177e802f60e01b81526001600160a01b03831660048201526024810182905260440161036f565b60008072184f03e93ff9f4daa797ed6e38ed64bf6a1f0160401b8310610ad25772184f03e93ff9f4daa797ed6e38ed64bf6a1f0160401b830492506040015b6d04ee2d6d415b85acef81000000008310610afe576d04ee2d6d415b85acef8100000000830492506020015b662386f26fc100008310610b1c57662386f26fc10000830492506010015b6305f5e1008310610b34576305f5e100830492506008015b6127108310610b4857612710830492506004015b60648310610b5a576064830492506002015b600a83106102795760010192915050565b60006001600160a01b03831615801590610bc95750826001600160a01b0316846001600160a01b03161480610ba55750610ba584846104fc565b80610bc957506000828152600460205260409020546001600160a01b038481169116145b949350505050565b6001600160e01b031981168114610be757600080fd5b50565b600060208284031215610bfc57600080fd5b81356104f581610bd1565b60005b83811015610c22578181015183820152602001610c0a565b50506000910152565b60008151808452610c43816020860160208601610c07565b601f01601f19169290920160200192915050565b6020815260006104f56020830184610c2b565b600060208284031215610c7c57600080fd5b5035919050565b80356001600160a01b0381168114610c9a57600080fd5b919050565b60008060408385031215610cb257600080fd5b610cbb83610c83565b946020939093013593505050565b600080600060608486031215610cde57600080fd5b610ce784610c83565b9250610cf560208501610c83565b9150604084013590509250925092565b600060208284031215610d1757600080fd5b6104f582610c83565b60008060408385031215610d3357600080fd5b610d3c83610c83565b915060208301358015158114610d5157600080fd5b809150509250929050565b634e487b7160e01b600052604160045260246000fd5b60008060008060808587031215610d8857600080fd5b610d9185610c83565b9350610d9f60208601610c83565b925060408501359150606085013567ffffffffffffffff80821115610dc357600080fd5b818701915087601f830112610dd757600080fd5b813581811115610de957610de9610d5c565b604051601f8201601f19908116603f01168101908382118183101715610e1157610e11610d5c565b816040528281528a6020848701011115610e2a57600080fd5b82602086016020830137600060208483010152809550505050505092959194509250565b60008060408385031215610e6157600080fd5b610e6a83610c83565b9150610e7860208401610c83565b90509250929050565b600181811c90821680610e9557607f821691505b602082108103610eb557634e487b7160e01b600052602260045260246000fd5b50919050565b60008351610ecd818460208801610c07565b835190830190610ee1818360208801610c07565b01949350505050565b6001600160a01b0385811682528416602082015260408101839052608060608201819052600090610f1d90830184610c2b565b9695505050505050565b600060208284031215610f3957600080fd5b81516104f581610bd156fea26469706673582212203b61f7e093553dd81d10f2d26a029b6e14902b0f59d26397687e7cb6aa7ad6a064736f6c63430008190033608060405234801561001057600080fd5b506040516113fa3803806113fa83398101604081905261002f91610066565b8061003981610040565b5050610279565b600261004c82826101ba565b5050565b634e487b7160e01b600052604160045260246000fd5b6000602080838503121561007957600080fd5b82516001600160401b038082111561009057600080fd5b818501915085601f8301126100a457600080fd5b8151818111156100b6576100b6610050565b604051601f8201601f19908116603f011681019083821181831017156100de576100de610050565b8160405282815288868487010111156100f657600080fd5b600093505b8284101561011857848401860151818501870152928501926100fb565b600086848301015280965050505050505092915050565b600181811c9082168061014357607f821691505b60208210810361016357634e487b7160e01b600052602260045260246000fd5b50919050565b601f8211156101b5576000816000526020600020601f850160051c810160208610156101925750805b601f850160051c820191505b818110156101b15782815560010161019e565b5050505b505050565b81516001600160401b038111156101d3576101d3610050565b6101e7816101e1845461012f565b84610169565b602080601f83116001811461021c57600084156102045750858301515b600019600386901b1c1916600185901b1785556101b1565b600085815260208120601f198616915b8281101561024b5788860151825594840194600190910190840161022c565b50858210156102695787850151600019600388901b60f8161c191681555b5050505050600190811b01905550565b611172806102886000396000f3fe608060405234801561001057600080fd5b50600436106100925760003560e01c80632eb2c2d6116100665780632eb2c2d6146101155780634e1273f414610128578063a22cb46514610148578063e985e9c51461015b578063f242432a1461016e57600080fd5b8062fdd58e1461009757806301ffc9a7146100bd5780630e89341c146100e0578063156e29f614610100575b600080fd5b6100aa6100a5366004610afa565b610181565b6040519081526020015b60405180910390f35b6100d06100cb366004610b3d565b6101a9565b60405190151581526020016100b4565b6100f36100ee366004610b61565b6101f9565b6040516100b49190610bc0565b61011361010e366004610bd3565b61028d565b005b610113610123366004610d50565b6102ad565b61013b610136366004610dfa565b610319565b6040516100b49190610ef6565b610113610156366004610f09565b6103e6565b6100d0610169366004610f45565b6103f5565b61011361017c366004610f78565b610423565b6000818152602081815260408083206001600160a01b03861684529091529020545b92915050565b60006001600160e01b03198216636cdb3d1360e11b14806101da57506001600160e01b031982166303a24d0760e21b145b806101a357506301ffc9a760e01b6001600160e01b03198316146101a3565b60606002805461020890610fdd565b80601f016020809104026020016040519081016040528092919081815260200182805461023490610fdd565b80156102815780601f1061025657610100808354040283529160200191610281565b820191906000526020600020905b81548152906001019060200180831161026457829003601f168201915b50505050509050919050565b6102a883838360405180602001604052806000815250610482565b505050565b336001600160a01b03861681148015906102ce57506102cc86826103f5565b155b156103045760405163711bec9160e11b81526001600160a01b038083166004830152871660248201526044015b60405180910390fd5b61031186868686866104df565b505050505050565b6060815183511461034a5781518351604051635b05999160e01b8152600481019290925260248201526044016102fb565b6000835167ffffffffffffffff81111561036657610366610c06565b60405190808252806020026020018201604052801561038f578160200160208202803683370190505b50905060005b84518110156103de576020808202860101516103b990602080840287010151610181565b8282815181106103cb576103cb611017565b6020908102919091010152600101610395565b509392505050565b6103f1338383610546565b5050565b6001600160a01b03918216600090815260016020908152604080832093909416825291909152205460ff1690565b336001600160a01b0386168114801590610444575061044286826103f5565b155b156104755760405163711bec9160e11b81526001600160a01b038083166004830152871660248201526044016102fb565b61031186868686866105dc565b6001600160a01b0384166104ac57604051632bfa23e760e11b8152600060048201526024016102fb565b6040805160018082526020820186905281830190815260608201859052608082019092529061031160008784848761066a565b6001600160a01b03841661050957604051632bfa23e760e11b8152600060048201526024016102fb565b6001600160a01b03851661053257604051626a0d4560e21b8152600060048201526024016102fb565b61053f858585858561066a565b5050505050565b6001600160a01b03821661056f5760405162ced3e160e81b8152600060048201526024016102fb565b6001600160a01b03838116600081815260016020908152604080832094871680845294825291829020805460ff191686151590811790915591519182527f17307eab39ab6107e8899845ad3d59bd9653f200f220920489ca2b5937696c31910160405180910390a3505050565b6001600160a01b03841661060657604051632bfa23e760e11b8152600060048201526024016102fb565b6001600160a01b03851661062f57604051626a0d4560e21b8152600060048201526024016102fb565b60408051600180825260208201869052818301908152606082018590526080820190925290610661878784848761066a565b50505050505050565b610676858585856106bd565b6001600160a01b0384161561053f57825133906001036106af57602084810151908401516106a88389898585896108d1565b5050610311565b6103118187878787876109f5565b80518251146106ec5781518151604051635b05999160e01b8152600481019290925260248201526044016102fb565b3360005b83518110156107f2576020818102858101820151908501909101516001600160a01b038816156107a3576000828152602081815260408083206001600160a01b038c1684529091529020548181101561077c576040516303dee4c560e01b81526001600160a01b038a1660048201526024810182905260448101839052606481018490526084016102fb565b6000838152602081815260408083206001600160a01b038d16845290915290209082900390555b6001600160a01b038716156107e8576000828152602081815260408083206001600160a01b038b168452909152812080548392906107e290849061102d565b90915550505b50506001016106f0565b5082516001036108735760208301516000906020840151909150856001600160a01b0316876001600160a01b0316846001600160a01b03167fc3d58168c5ae7397731d063d5bbf3d657854427343f4c083240f7aacaa2d0f628585604051610864929190918252602082015260400190565b60405180910390a4505061053f565b836001600160a01b0316856001600160a01b0316826001600160a01b03167f4a39dc06d4c0dbc64b70af90fd698a233a518aa5d07e595d983b8c0526c8f7fb86866040516108c292919061104e565b60405180910390a45050505050565b6001600160a01b0384163b156103115760405163f23a6e6160e01b81526001600160a01b0385169063f23a6e6190610915908990899088908890889060040161107c565b6020604051808303816000875af1925050508015610950575060408051601f3d908101601f1916820190925261094d918101906110c1565b60015b6109b9573d80801561097e576040519150601f19603f3d011682016040523d82523d6000602084013e610983565b606091505b5080516000036109b157604051632bfa23e760e11b81526001600160a01b03861660048201526024016102fb565b805181602001fd5b6001600160e01b0319811663f23a6e6160e01b1461066157604051632bfa23e760e11b81526001600160a01b03861660048201526024016102fb565b6001600160a01b0384163b156103115760405163bc197c8160e01b81526001600160a01b0385169063bc197c8190610a3990899089908890889088906004016110de565b6020604051808303816000875af1925050508015610a74575060408051601f3d908101601f19168201909252610a71918101906110c1565b60015b610aa2573d80801561097e576040519150601f19603f3d011682016040523d82523d6000602084013e610983565b6001600160e01b0319811663bc197c8160e01b1461066157604051632bfa23e760e11b81526001600160a01b03861660048201526024016102fb565b80356001600160a01b0381168114610af557600080fd5b919050565b60008060408385031215610b0d57600080fd5b610b1683610ade565b946020939093013593505050565b6001600160e01b031981168114610b3a57600080fd5b50565b600060208284031215610b4f57600080fd5b8135610b5a81610b24565b9392505050565b600060208284031215610b7357600080fd5b5035919050565b6000815180845260005b81811015610ba057602081850181015186830182015201610b84565b506000602082860101526020601f19601f83011685010191505092915050565b602081526000610b5a6020830184610b7a565b600080600060608486031215610be857600080fd5b610bf184610ade565b95602085013595506040909401359392505050565b634e487b7160e01b600052604160045260246000fd5b604051601f8201601f1916810167ffffffffffffffff81118282101715610c4557610c45610c06565b604052919050565b600067ffffffffffffffff821115610c6757610c67610c06565b5060051b60200190565b600082601f830112610c8257600080fd5b81356020610c97610c9283610c4d565b610c1c565b8083825260208201915060208460051b870101935086841115610cb957600080fd5b602086015b84811015610cd55780358352918301918301610cbe565b509695505050505050565b600082601f830112610cf157600080fd5b813567ffffffffffffffff811115610d0b57610d0b610c06565b610d1e601f8201601f1916602001610c1c565b818152846020838601011115610d3357600080fd5b816020850160208301376000918101602001919091529392505050565b600080600080600060a08688031215610d6857600080fd5b610d7186610ade565b9450610d7f60208701610ade565b9350604086013567ffffffffffffffff80821115610d9c57600080fd5b610da889838a01610c71565b94506060880135915080821115610dbe57600080fd5b610dca89838a01610c71565b93506080880135915080821115610de057600080fd5b50610ded88828901610ce0565b9150509295509295909350565b60008060408385031215610e0d57600080fd5b823567ffffffffffffffff80821115610e2557600080fd5b818501915085601f830112610e3957600080fd5b81356020610e49610c9283610c4d565b82815260059290921b84018101918181019089841115610e6857600080fd5b948201945b83861015610e8d57610e7e86610ade565b82529482019490820190610e6d565b96505086013592505080821115610ea357600080fd5b50610eb085828601610c71565b9150509250929050565b60008151808452602080850194506020840160005b83811015610eeb57815187529582019590820190600101610ecf565b509495945050505050565b602081526000610b5a6020830184610eba565b60008060408385031215610f1c57600080fd5b610f2583610ade565b915060208301358015158114610f3a57600080fd5b809150509250929050565b60008060408385031215610f5857600080fd5b610f6183610ade565b9150610f6f60208401610ade565b90509250929050565b600080600080600060a08688031215610f9057600080fd5b610f9986610ade565b9450610fa760208701610ade565b93506040860135925060608601359150608086013567ffffffffffffffff811115610fd157600080fd5b610ded88828901610ce0565b600181811c90821680610ff157607f821691505b60208210810361101157634e487b7160e01b600052602260045260246000fd5b50919050565b634e487b7160e01b600052603260045260246000fd5b808201808211156101a357634e487b7160e01b600052601160045260246000fd5b6040815260006110616040830185610eba565b82810360208401526110738185610eba565b95945050505050565b6001600160a01b03868116825285166020820152604081018490526060810183905260a0608082018190526000906110b690830184610b7a565b979650505050505050565b6000602082840312156110d357600080fd5b8151610b5a81610b24565b6001600160a01b0386811682528516602082015260a06040820181905260009061110a90830186610eba565b828103606084015261111c8186610eba565b905082810360808401526111308185610b7a565b9897505050505050505056fea2646970667358221220d14870c197b38d7f6bc846241842fb5efee81523dddfcc874cbe93582d581cd764736f6c63430008190033","linkReferences":{}},"methodIdentifiers":{"deploy_erc1155()":"664465a0","deploy_erc20()":"aa39dec2","deploy_erc721()":"472147dc","erc1155()":"d56022d7","erc1155_next_id()":"e3649b6f","erc20()":"785e9e86","erc721()":"bca6ce64","erc721_next_id()":"aa4b0ae9","mint_erc1155()":"1db2b075","mint_erc20()":"aa9c0896","mint_erc721()":"79e118d0"},"id":20}